:020000040800F2
:10000000C00E0020610200083B3C00089B34000841
:10001000393C0008DD180008693F000800000000B6
:100020000000000000000000000000003F3C00084D
:10003000DF180008000000003D3C0008413C0008BB
:100040007B0200087B0200087B0200087B0200089C
:100050007B0200087B0200087B0200087B0200088C
:100060007B0200087B0200087B0200087B0200087C
:100070007B0200087B0200087B0200087B0200086C
:100080007B0200087B0200087B02000800000000E1
:100090000000000000000000000000007B020008DB
:1000A0007B0200087B0200087B0200087B0200083C
:1000B0007B0200087B020008D53C00087B02000898
:1000C0007B0200087B0200087B0200087B0200081C
:1000D0007B0200087B0200087B0200080000000091
:1000E0007B0200087B0200087B0200080000000081
:1000F0000000000000000000000000007B0200087B
:10010000000000007B0200087B0200087B02000860
:1001100000000000000000000000000000000000DF
:100120007B0200087B0200087B0200087B020008BB
:100130007B0200080000000000000000000000003A
:100140000000000000000000000000007B0200082A
:100150007B0200087B0200087B0200087B0200088B
:100160007B0200087B020008000000000000000085
:10017000000000000000000000000000000000007F
:10018000000000007B0200080000000000000000EA
:100190007B02000800F002F800F052F80AA090E894
:1001A000000C82448344AAF10107DA4501D100F032
:1001B00047F8AFF2090EBAE80F0013F0010F18BFAD
:1001C000FB1A43F001031847605F0000805F0000E6
:1001D000103A24BF78C878C1FAD8520724BF30C873
:1001E00030C144BF04680C60704700000023002445
:1001F00000250026103A28BF78C1FBD8520728BF37
:1002000030C148BF0B607047662905F00487642938
:1002100000F01A81632900F05885732900F05D858C
:10022000002070471FB505F0ECFE00F05BFD0400F8
:100230000020002105F094F8E0601FBD10B510BD4E
:1002400000F054FE1146FFF7EDFF03F0C1FF00F090
:1002500072FE03B4FFF7F2FF03BC00F0B5FE00002E
:100260000948804709480047FEE7FEE7FEE7FEE74A
:10027000FEE7FEE7FEE7FEE7FEE7FEE70448054986
:10028000054A064B70470000C53C00089501000870
:10029000C0080020C00E0020C00A0020C00A0020B4
:1002A00053EA020C00F069802DE9F04B4FF0000694
:1002B000002B1FBFB3FA83F503FA05F424FA05F601
:1002C0005E4012BF1643B2FA82F502FA05F4C5F198
:1002D00020051EBF22FA05FC44EA0C04203556EA2C
:1002E000044C4FEA144418BF641C4FF000084FF050
:1002F0000009904271EB030C39D3002919BFB1FA00
:1003000081F701FA07F6B0FA80F700FA07F6C7F1AD
:1003100020071EBF20FA07FC46EA0C062037B6FB72
:10032000F4FCA7EB0507103F07F01F0BCBF12006ED
:100330000CFA0BFB2CFA06F644BFB3460026202F1E
:10034000A4BF5E464FF0000B5BEA060C08BF4FF0FF
:10035000010B19EB0B09ABFB027C48EB0608C01B39
:1003600006FB02CC0BFB03CC71EB0C01C1E70B4687
:10037000024641464846BDE8F08B13B54FF00000F9
:100380004FF00001AFF30080BDE81C407047000053
:100390000FB41CB5084B06AA7B446946009005982B
:1003A00000F069FC04460020694600F077FC204616
:1003B0001CBC5DF814FB0000010900000FB47CB503
:1003C0000C0009AA009001D02044401E084B7B4439
:1003D00069460190089800F04EFC05461CB10020CB
:1003E000694600F05BFC28467CBC5DF814FB00000D
:1003F000D508000070B50C460546012A05D02878BE
:10040000800600D5EA69002302E0012305E05B1CB9
:10041000934202D2E05C0028F9D1A869E618C01A1C
:10042000A861286A184428622846AFF3008004E0D7
:10043000D5E9012114F8010B9047B442F8D32846BE
:10044000AFF3008070BD00002DE9F04106460024A6
:1004500010687529314616A510D0AFF3008000282A
:1004600002DA404213A507E031688A0701D512A5D8
:1004700002E0490704D511A5012401E0AFF3008093
:1004800000210A2206F1240709E0B0FBF2FCB0FBD0
:10049000F2F302FB1C00303078541846491C002847
:1004A000F3D123462A463046BDE8F04100F076B944
:1004B000000000002D0000002B00000020000000C4
:1004C0002DE9F05F894604464FF0000ADFF874B169
:1004D000FB44C0F820A02046E1688847002874D07B
:1004E000252806D0D4E901219047206A401C2062CB
:1004F000F1E700265F462046E16888472028054648
:1005000007DB312D05D2781910F8200C08B106430D
:10051000F1E7B00701D526F00406C4F81CA00027B7
:10052000C4F818A02A2D09D0284603F083FD38B35B
:1005300004EB8708303DC8F8185019E059F8041B3F
:10054000204604EB87029161E1688847012F054648
:1005500018D1E069002820DA26F020061DE0D8F83E
:10056000180000EB800005EB40003038C8F8180098
:100570002046E1688847054603F05CFD0028EED17F
:10058000012F0AD02E2D08D12046E16888477F1C14
:100590000546022F46F02006C4DBA069002803DAD6
:1005A000404246F00106A061F00701D026F0100697
:1005B0006C2D0BD0682D09D04C2D39D06A2D35D03B
:1005C000742D35D07A2D33D016E038E0E1682F460F
:1005D00020468847B842054609D16C2F26D04FF4F3
:1005E0008060E168064320468847054604E06C2F9A
:1005F0001AD04FF4807006430DB3A5F141001928BD
:1006000002D8203546F400664A4629462046266030
:100610004E46FFF7F9FD80B101280BD0F61D26F0FC
:10062000070000F1080956E74020E4E78020D8E7FA
:100630000020D6E706F104094DE7284652E7206A74
:10064000BDE8F09FAE5B000010B5431E13F8014FEC
:10065000002CFBD105E011F8014B002C03F8014BF5
:1006600003D0521EF7D20021197010BD30B50546D7
:100670000B462A4613F8014B12F8010B08B1A042B1
:10068000F8D01CB1002802D06D1CF1E7284630BD1F
:1006900010B5431C02E010F8011B71B18107FAD1BB
:1006A0004FF0013202C88C1A8C4314EAC211F9D0FF
:1006B000C01A0A0603D0C01E10BDC01A10BD0A041D
:1006C00001D0801E10BD0902FCD0401E10BD10B527
:1006D000203AC0F00B80B1E81850203AA0E818503A
:1006E000B1E81850A0E81850BFF4F5AF5FEA027CFB
:1006F00024BFB1E81850A0E8185044BF18C918C06A
:10070000BDE810405FEA827C24BF51F8043B40F80A
:10071000043B08BF7047D20728BF31F8023B48BFEF
:1007200011F8012B28BF20F8023B48BF00F8012B2D
:1007300070474FF0000200B51346944696462039A4
:1007400022BFA0E80C50A0E80C50B1F12001BFF48A
:10075000F7AF090728BFA0E80C5048BF0CC05DF8F0
:1007600004EB890028BF40F8042B08BF704748BF3E
:1007700020F8022B11F0804F18BF00F8012B7047B2
:1007800070477047704710B500F0B0FA006810BDB0
:1007900010B5044600F0AAFA046010BD2DE9F04738
:1007A0000D4699469246044600F1240801688806E1
:1007B00004D5E06921F01001216000E00120A84289
:1007C00001DD471B00E00027A1697A1902EB09004F
:1007D000081AA0612078C00602D42046AFF300803A
:1007E000002608E0D4E901211AF806009047206AA3
:1007F000401C761C20624E45F4DB2078C0060AD5EA
:100800002046AFF3008006E0D4E901213020904774
:10081000206A401C2062381EA7F10107F4DC07E0C3
:10082000D4E9012118F805009047206A401C206295
:10083000281EA5F10105F3DC2046AFF300802078E7
:10084000000602D50220BDE8F0870120FBE77047D3
:100850002DE9FF4F0C461E464FF0FF378BB0D2E913
:100860000001DDF860800A908A46C1F30A5505B997
:100870003D46002108464FF00000BAF1000F00F499
:10088000400005DA00EB80004FF4400101EA50001F
:100890004FEA9059B9F1010F00DDB9460A9850EAC4
:1008A0004A000ED044F61050A5F2FF3545432F14F0
:1008B000B8F1000F1ED07542291E1EDDC9F10002DD
:1008C0001CE0B8F1010F4FF0000001D0302103E02F
:1008D000F24305E02154401CB042FBDB30460022CD
:1008E000002121540B99C1F80880C1E900200FB004
:1008F000BDE8F08FBD1B6D1CDEE74A4600DA694299
:1009000006A800F07DFA06AB93E8070003AB83E886
:10091000070050460A9900F05EFB8DE80700A0F53D
:1009200000501F3800900398002D0ADD42F21F018D
:100930004A460844002303A90390684600F0C7FD17
:1009400009E0A0F500504A461F38002303A9039090
:10095000684600F0D1FD8DE807000004000C03D0CC
:100960004FF0FF30410800E01046B8F1000F03D00F
:100970000022009215461EE0751E05D400F0BAF95B
:10098000303262556D1EF9D5B3460122084302D0BC
:1009900000227F1C04E02078302801D100227F1E35
:1009A000002A099784D01DE0112D07DA00F0A2F982
:1009B000303262556D1C50EA0102F5D1084302D075
:1009C0000098C8B10EE00021681E05E0235C625C5F
:1009D00063542254401E491C8142F7DBAB46A81BDE
:1009E000401E0990002004F80B000B98099AC0F8EB
:1009F0000880C0E9002B7AE711264FF0000857E77E
:100A00002DE9F04F88460446D21D22F0070191B02F
:100A1000D1E90001CDE90A0103F0A7FA02460B98DB
:100A2000C00F01D02D2007E02068810701D52B20C1
:100A300002E0202101EAC000032A099001D0072A20
:100A400005DB03464146204600F09AF90BE1207889
:100A5000800601D5E06900E00620B8F1650F814607
:100A600006D0B8F1660F18D0B8F1670F70D131E039
:100A70000020B9F1110F009001DB112301E009F111
:100A800001030AAA01A90CA8FFF7E2FEDDE90C7038
:100A9000002609F10105834647E001204B460090FE
:100AA0004FF000470AAA01A90CA8FFF7D1FEDDE923
:100AB0000DB00C995D46002610B909F101000D1822
:100AC000B9EB050003D4C0F1FF3609F10105A5EB30
:100AD00009002BE0B9F1010F01DA4FF00109002004
:100AE000B9F1110F0090484601DD112300E00346E3
:100AF0000AAA01A90CA8FFF7ABFEDDE90C704D4670
:100B000000268346207800070AD4AB4500DA5D460C
:100B100001A8012D04DD411911F8011C302907D06D
:100B20004F4502DA17F1040F04DA012082460FE084
:100B30006D1EEEE7002F02DCED1B3E4403E0781C47
:100B4000A84200DD7D1CB81B00F1010A4FF00047F0
:100B50002078000703D4AA4501DB4FF0FF3A0021BB
:100B6000B7F1004F0DF143088DF8431024D0022057
:100B70002B23002F01DA7F422D230A21021EA0F130
:100B8000010000DC5FB197FBF1FC97FBF1F201FB88
:100B90001C7C17460CF1300C08F801CDEEE7A8F1EB
:100BA000010003702188090501D5452100E0652178
:100BB000A0F1010800F8011C09980FA9A1EB080792
:100BC000FF1D00B10120411901EBEA70A169384411
:100BD000081A401EA0612078C00602D42046AFF358
:100BE0000080099828B1D4E901219047206A401C6F
:100BF00020622078C00622D52046AFF300801EE098
:100C0000002E04DBB34502DD01A8805D00E030204A
:100C1000D4E901219047206A401C2062761CAAF189
:100C200001005FEA000A0AD100F05CF8C0680168C0
:100C3000405CD4E901219047206A401C2062281EB4
:100C4000A5F10105DCDC07E0D4E9012118F8010B6E
:100C50009047206A401C2062381EA7F10107F3DC90
:100C60002046AFF30080032011B041E601694A1C21
:100C700002610878704700B58FB0CDE901310021DD
:100C8000059105497944CDE9031011466846FFF7FF
:100C900017FC0FB000BD0000E5FFFFFF0A6802F877
:100CA000010B0A607047D1E900239A4202D2531C1B
:100CB0000B601070704710B5436913B1AFF300803B
:100CC00001E0FFF797FB012010BD127800F124012D
:100CD0000A7000224A700122EDE711684FF0FF32DE
:100CE000E9E700000048704780080020004870478E
:100CF0006008002030B5B0F10A024FEA900E71F1A1
:100D000000034EEA817EB0EB0E0061EB91014FEAE9
:100D1000101E4EEA017E10EB0E0041EB11114FEA5E
:100D2000102E4EEA016E10EB0E0041EB11214FEA3E
:100D3000104E4EEA014E10EB0E0041EB11414018EF
:100D400041F100014FEAD00040EA41704FEAD10181
:100D500010EB80054FEA810444EA907444EB0104EF
:100D60006D1944EB0404521BA3414FF0000348BF2C
:100D70000A3200D530BD401C41F1000130BD0000F9
:100D80002DE9F0411F46044603260168072A01F4B5
:100D9000006004DB08B116A505E016A503E008B164
:100DA00015A500E015A521F010002060A069C01E67
:100DB000A0610FB1401EA0612046AFF300804FB18B
:100DC000D4E9012138469047206A401C2062C01CAB
:100DD000206206E0206AFAE7D4E9012115F8010B48
:100DE0009047761EF8D22046AFF30080BDE8F08130
:100DF0004E414E006E616E00494E4600696E6600BF
:100E00002DE9F047814616468AB0354878440DC82A
:100E10008DE80D0032487844801C03AC0DC884E88E
:100E20000D0041F69B300844372190FBF1F290FB16
:100E3000F1F5A5F1800501FB12041B3C02D56442CB
:100E4000012000E00020DFF898A080460027FA4447
:100E5000AAF1BE0A0EE0E0070AD03246684607EB68
:100E6000470101230AEB810100F046FB8DE80700F2
:100E700064107F1C002CEED1194F7F44AE3F19E067
:100E8000E80715D007EB04100DF1180A90E80E00E2
:100E90008AE80E00C068F04201D1981908903246E5
:100EA000012306A903A800F027FB03AB83E8070092
:100EB0006D10641C002DE3D14FF0010332466946EA
:100EC000B8F1000F03A802D000F001FB01E000F030
:100ED00013FBC9E90001C9F808200AB0BDE8F08792
:100EE0000053000000487047600800207546FFF777
:100EF000F9FFAE4605006946534620F007008546D7
:100F000018B020B5FFF7BAF9BDE820404FF0000651
:100F10004FF000074FF000084FF0000B21F00701E1
:100F2000AC46ACE8C009ACE8C009ACE8C009ACE824
:100F3000C0098D46704710B50446AFF300802046C7
:100F4000BDE81040FFF785B94FF0013C50F8042B85
:100F500051F8043B9A4221D1A2EB0C03934313EACC
:100F6000CC1317D150F8042B51F8043B9A4215D1F9
:100F7000A2EB0C03934313EACC130BD150F8042BD0
:100F800051F8043B9A4209D1A2EB0C03934313EAB4
:100F9000CC13DBD04FF00000704700BFD01A01BA6D
:100FA000B1FA81F101F0180122FA01F0CB40C1F150
:100FB0002001DBB2C0B2C01A2CFA01F3D11A91435E
:100FC00011EAC311E6D1704701491820ABBEFEE714
:100FD0002600020070475FEA400C08BF91F0000F46
:100FE0004FEA8C234FEAC12243EA51514FEA1C5089
:100FF00018BF00F5F0404FEA300018BF41F0004143
:101000005FEA6C5C00F02980BCF1FF3F08BF40F054
:1010100080407047130C06BF12044FF0100C4FF0C5
:10102000000C130E04BF12020CF1080C130F04BFC6
:1010300012010CF1040C930F04BF92000CF1020C8E
:10104000D30F04BF52000CF1010C11464FF0000207
:10105000A0F11F00A0EB0C00704711F0004F08BF7B
:10106000704731F000413FF4D5AF0B0C06BF0904C7
:101070004FF0100C4FF0000C0B0E04BF09020CF1E6
:10108000080C0B0F04BF09010CF1040C8B0F04BFFB
:1010900089000CF1020CCB0F04BF49000CF1010CCC
:1010A000CCF12003A0EB0C0022FA03F302FA0CF2BD
:1010B00041EA030100F10100704720F07F4C80EA13
:1010C000030023F07F47ACEB070303F57C5300F0EC
:1010D000004003F1FF032DE980494FEA154B09B4A5
:1010E0004FEA144325EA0B4E24EA03480FF2042684
:1010F00006EB132749083E785FEA320203FB0667D6
:10110000C7F5000707FB06F64FEA54374FEAD64605
:1011100006F1020607FB066CCCF1005C4FEA1C47A7
:101120002CEA074C07FB06F40CFB06F504EB15460E
:101130004FEA961634BF00204FF000404FEAD137F7
:1011400006FB07FC4FEA1C4C0CFB0BF7D21B03FB06
:101150000CF761EB07010CFB0EF7B0EB074072EBED
:1011600017420CFB08F734BFA2EB0742B2EB074271
:1011700061EB17414FEA0C444FEA910706FB07FC6D
:101180004FEA1C4C0CFB0BF7B0EBC74072EB57322D
:1011900003FB0CF734BFA2EBC742B2EBC74261EBD3
:1011A00057310CFB0EF7B0EBC70072EB57720CFB1C
:1011B00008F734BFA2EBC702B2EBC70261EB57716D
:1011C000039F4FEA816141EA921104EBCC044FEA9C
:1011D000D1374FEA826206FB07FC42EA90124FEADF
:1011E00080604FEA1C4C0CFB0BF7D21B03FB0CF787
:1011F00061EB07010CFB0EF7B0EB074072EB1742F7
:101200000CFB08F734BFA2EB0742B2EB074261EBDD
:1012100017414FEA8C554FEA910704EB9C2406FBDB
:1012200007FC4FEA1C4C0CFB0BF7B0EBC74072EB12
:10123000573203FB0CF734BFA2EBC742B2EBC742F5
:1012400061EB57310CFB0EF7B0EBC70072EB577236
:101250000CFB08F734BFA2EBC702B2EBC70261EB8D
:10126000577115EB4C254FEA816141EA92114FEA23
:1012700082624FEAD13742EA901206FB07FC44F142
:1012800000044FEA80604FEA1C4C0CFB0BF7D21BAA
:1012900003FB0CF761EB07010CFB0EF7B0EB07400B
:1012A00072EB17420CFB08F734BFA2EB0742B2EB1C
:1012B000074261EB174115EB1C154FEA813141EAFA
:1012C00092414FEA823242EA90424FEA80304FEA3E
:1012D0000C7644F1000448EA03434EEA0B484FF011
:1012E000000EB2EB080C71EB030724BF62463946CF
:1012F0004EEB0E0E4FF0000B0018524149414BEBE4
:101300000B0BB2EB080C71EB03077BF1000B24BF56
:10131000624639464EEB0E0E4FF0000B001852415C
:1013200049414BEB0B0BB2EB080C71EB03077BF164
:10133000000B24BF624639464EEB0E0E51EA0207FF
:1013400018BF46F0010616EB0E7655F1000254F177
:10135000000103D5BDE88901BDE80088BDE8890129
:10136000BDE80048B619524141EB0101A3F1010368
:10137000704780807F7E7D7C7B7A79787776767502
:101380007473727171706F6E6E6D6C6C6B6A6A697A
:101390006868676666656464636362616160605F14
:1013A0005F5E5E5D5D5C5C5B5B5A5A59595858578D
:1013B00057565655555554545353525252515150F5
:1013C00050504F4F4F4E4E4D4D4D4C4C4C4B4B4B48
:1013D0004A4A4A494949484848474747474646468E
:1013E00045454544444444434343434242424241C9
:1013F0004141002B9C4630D477002BD01CB54FEADE
:10140000370703B44FF010004FF01001BAF1000F8E
:1014100006D0BCF1000FDCBF40F0080040F008012E
:101420004FF000000FBCBDE810400BF1010BBBF109
:10143000010F08BF5FEA170722BF12F1010211F185
:1014400001014FF0004143F1000300F0004043EA86
:1014500000007047F9D35708D0E746EA064613F173
:10146000400F4FEA16461FDD13F1200FDFBF164372
:101470000A46002120335B42BED0C3F1200746EA72
:10148000064602FA07F74FEA164646EA0706C3F190
:10149000200722FA03F201FA07F721FA03F14FF0CD
:1014A000000342EA0702A7E746EA020646EA0646C2
:1014B0004FEA164646EA0106BCBF46EA0646360C27
:1014C0004FF000034FF000024FF0000194E72DE9C8
:1014D000804C9A46934670B491E8380007C831EAC8
:1014E000400C48BF34EA430C03D5FFF7E6FDFFF795
:1014F00080FFF0BCBDE8008C2DE9804C9A469346F5
:1015000070B491E8380007C810F0804F08BF13F09E
:10151000804F03D100F005F8FFF76BFFF0BCBDE88A
:10152000008C20F07F4780EA030023F07F4C07EB1C
:101530000C03A3F57C5300F00040A3F1FE0392F0EE
:10154000000F00F0B38095F0000F00F077802DE9D8
:1015500001494FEA11404FEA144621EA004800FBD6
:1015600006FC24EA064708FB06F607FB08F800FB22
:1015700007F718EB06484CEB164C4FEA124B18EBEA
:1015800007484FEA15464CEB174022EA0B4E0BFB7F
:1015900006FC25EA06470EFB06F607FB0EFE0BFBD4
:1015A00007F71EEB064E4CEB164C4FF000061EEBF9
:1015B000074E4CEB174B18EB0B0840F1000018EBF3
:1015C0000E0B58EB000840F100008F1A4FF000019D
:1015D0003CBFC943661B14BFB5EB040C00213CBFE4
:1015E000C943F61B4FEA17444EEA8E0E27EA04451C
:1015F0004FEA1C4704FB07622CEA074C05FB07F780
:101600000CFB05F604FB0CFC16EB074642EB1742FD
:1016100016EB0C4642EB1C421BEB060658EB020293
:10162000414146EA9E0601D5BDE80189B6195241FD
:1016300041EB0101A3F10103BDE801894FEA144523
:101640004FEA114724EA054621EA074C05FB07F457
:1016500006FB07F70CFB06F105FB0CFC11EB074141
:1016600044EB17444FEA124711EB0C4144EB1C4486
:1016700022EA074C05FB07F206FB07F70CFB06F610
:1016800005FB0CFC16EB074642EB174216EB0C462B
:1016900042EB1C456A1854F1000148BF7047B61967
:1016A000524141EB0101A3F10103704795F0000F96
:1016B00037D04FEA11424FEA144721EA024624EAA2
:1016C000074C02FB07F106FB07F70CFB06F402FBD5
:1016D0000CFC14EB074441EB17414FEA154714EBA0
:1016E0000C4441EB1C4125EA074C02FB07F506FBC5
:1016F00007F70CFB06F602FB0CFC16EB074645EB66
:10170000174516EB0C4645EB1C42121951F100012E
:1017100048BF7047B619524141EB0101A3F10103E3
:1017200070474FEA14454FEA114724EA054621EA7B
:10173000074C05FB07F106FB07F70CFB06F24FF021
:10174000000605FB0CFC12EB074241EB174112EBC4
:101750000C4251EB1C4148BF7047921841EB01010C
:10176000A3F10103704700001FB500200290039011
:10177000072000900120019069460C4800F0E8F82D
:1017800008B172B6FEE7094800F03CFA6421074848
:1017900000F0E2F9054800F081F9054CA062034829
:1017A00000F096FAA06A04B010BD000040060020C8
:1017B00018000020464910B54A6822F440324A60B9
:1017C0004A6843681A434A6001684A6822F4807292
:1017D0004A6001684A68036942EA03224A60016874
:1017E0004A6822F040724A6001684A6883681A4376
:1017F0004A6001688A6822F400628A6001688A6827
:10180000C3681A438A60816A6FF07062D1420168CE
:101810008A6822F070628A6001688A680CD0836AE4
:101820001A438A6001688A6822F040528A6001681F
:101830008A68C36A1A4301E022F040528A60016854
:101840008A6822F002028A6001688A68037E42EA9E
:1018500043028A6090F82010002901684A680FD07E
:1018600042F400624A6001684A6822F460424A60B9
:1018700001684A68174C436A04EB43331A4301E09A
:1018800022F400624A600168CA6A22F47002CA62E5
:101890000168CA6A838B104C04EB03531A43CA6273
:1018A00001688A6822F400728A6001688A6890F888
:1018B000303042EA43228A6001688A6822F48062FA
:1018C0008A6001688A68406942EA8020886010BDA9
:1018D0000023014000E0FFFF0000F0FFFEE770473B
:1018E00000B585B04FF47A72072103A88DE8070090
:1018F00001230022D021144800F02AFD9DF80C009D
:1019000002F09FFB114A10609DF80D0002F099FB58
:1019100050609DF80E0002F094FB90609DF80F005F
:1019200002F08FFBD0609DF8100002F08AFB10617E
:101930009DF8110002F085FB50619DF8120002F045
:1019400080FB906105B000BD880600201C080020C7
:1019500078B50024009490F83C20012A19D0012287
:1019600080F83C200A6807230568092A13D9EE6825
:101970000A3A02EB420293409E43EE600B788A687B
:101980000A3B03EB43039A400368DD682A43DA60AD
:1019900010E0022078BD2E6902EB420293409E4384
:1019A0002E610B788A6803EB43039A4003681D6934
:1019B0002A431A614A681F23072A13D205686E6BEF
:1019C000521E02EB820293409E436E630B790A889B
:1019D0005B1E92B203EB83039A4003685D6B2A435C
:1019E0005A6327E005680D2A12D22E6BD21F02EB34
:1019F000820293409E432E630B790A88DB1F92B2CA
:101A000003EB83039A4003681D6B2A431A6311E0BA
:101A1000EE6A0D3A02EB820293409E43EE620B792E
:101A20000A880D3B92B203EB83039A400368DD6A98
:101A30002A43DA62164B0568144A9D4206D10D68A6
:101A4000122D03D1556845F48005556005689D4207
:101A500018D10B68102B01D0112B13D1536843F40C
:101A600000035360096810290CD10A490A4A096821
:101A7000B1FBF2F101EB8101490000E0491E009148
:101A80000029FBD180F83C40002078BD00230140B4
:101A900000200140B400002040420F000068C06CEC
:101AA000704770B504004FF0000503D0206C00268D
:101AB00010B107E0012070BD204600F01DF86664FB
:101AC00084F83C60206CC00610D4206C20F4885050
:101AD00040F0020020642046FFF76CFE6664206C34
:101AE00020F0020040F00100206400E0012584F8AD
:101AF0003C60284670BD000010B586B00446142135
:101B00006846FEF716FE1149206888421CD110482D
:101B10000021026842F480720260006800F4807064
:101B200005900B481438026842F001020260006818
:101B300000F001000590802000900320CDE9010114
:101B40006946044800F0F4F806B010BD00200140DA
:101B500044380240000002402DE9F041044600688C
:101B60000D4681684FF0000749050BD58068C00518
:101B700008D5206C40F02000206484F83C700120DF
:101B8000BDE8F08100F0CEF9064613E0681C11D0E4
:101B900025B100F0C7F9801BA8420BD92068006866
:101BA000800707D4206C40F00400206484F83C7067
:101BB0000320E5E7206800688007E7D521686FF01B
:101BC00012000860206C40F4007020642068816876
:101BD00011F0405F13D1217E89B9C16A11F4700FF1
:101BE00002D0806840050AD4206C20F48070206404
:101BF000206CC00403D4206C40F00100206400205D
:101C0000BEE7000018B50021009190F83C20012AA1
:101C100007D0012280F83C2002689368DB0702D0DD
:101C200011E0022018BD936843F001039360244A39
:101C3000244B1268B2FBF3F202EB420200E0521EA8
:101C40000092002AFBD102689368DB072ED0036C58
:101C500040F20164A34343F48073036453685B055B
:101C600005D5036C23F4005343F480530364036CE1
:101C7000DB0404D5436C23F00603436400E04164B5
:101C800080F83C1010496FF0220313604968006827
:101C9000C90602D00D49884210D1816811F0405F19
:101CA0000CD1816841F08041816007E0016C41F016
:101CB00010010164416C41F001014164002018BD34
:101CC000B400002040420F000023014000200140EA
:101CD00090F83C1001290CD0012180F83C100168DB
:101CE0008A6822F001028A6001688968C90702D007
:101CF00007E002207047016C21F4885141F0010196
:101D00000164002180F83C100846704770B5044615
:101D100000F008F90546601C02D00448007804442D
:101D200000F000F9401BA042FAD370BDA8000020CB
:101D30002DE9F84FDFF8B8A10022012403254FF068
:101D40000F090AF1040BAAF1040E00BF0B6804FA94
:101D500002F63340B34273D10F7907F00307012F26
:101D600001D0022F16D187684FEA420805FA08FC15
:101D700027EA0C07D1F80CC00CFA08FC4CEA070C57
:101D8000C0F808C04768B7430E79C6F300169640FE
:101D90003E4346600E79F643B6070DD0C76856003D
:101DA00005FA06FC27EA0C07D1F808C00CFA06FC75
:101DB0004CEA070CC0F80CC00E7906F00306022EA0
:101DC00010D1D60800EB8608D8F8206057074FEAF4
:101DD000D76C09FA0CF7BE430F6907FA0CF73743C3
:101DE000C8F8207006684FEA420C05FA0CF7BE43AB
:101DF0000F7907F0030707FA0CF7374307604E68BF
:101E000016F4403F6DD03B4E376847F4804737604B
:101E1000366822F0030706F480460096364E07EB3C
:101E2000060CDCF8086897073F0F09FA07F826EA5E
:101E30000806DFF8C880404503D14FF000081EE0D7
:101E40004FE0DFF8BC80404502D14FF0010816E0BA
:101E5000DFF8B080404502D14FF002080FE0DFF814
:101E6000A880404502D14FF0030808E0DFF89C80CD
:101E7000404502D14FF0040801E04FF0070808FA8E
:101E800007F848EA0608CCF80888DAF800605746F0
:101E9000D1F804C09E435FEACC2C00D51E433E60BF
:101EA000DBF800605F46D1F804C09E435FEA8C2CEB
:101EB00000D51E433E60DEF800607746D1F804C0CE
:101EC0009E435FEA8C3C00D51E433E60084F083FAE
:101ED0003E68D1F804C09E435FEACC3C00D51E4367
:101EE0003E60521C102AFFF431AFBDE8F88F0000AD
:101EF000083C0140443802400030014000000240EC
:101F00000004024000080240000C024000100240A1
:101F10000069084000D0012070470AB18161704714
:101F20000904FBE70148806870470000A800002012
:101F300070B5040025D094F83D00002520B984F840
:101F40003C50204600F000FB242084F83D0020682F
:101F5000016821F0010101602068016841F400413D
:101F600001602068016821F40041016000F094FCE8
:101F70004D4A6168914201D84C4900E04C49884281
:101F800001D2012070BD4B492368B0FBF1F15E68BE
:101F900026F03F060E435E606368934206D94FF415
:101FA000967359434FF47A73B1FBF3F12368491CDC
:101FB0001E6A26F03F06314319626168914210D8CB
:101FC0004900401EB0FBF1F2521CC2F30B02042A7E
:101FD00001D2042022E0B0FBF1F0401CC0F30B0062
:101FE0001CE0A268F2B301EBC10303EB0116431E30
:101FF000B3FBF6F35B1C43F480431B0549D092B35B
:1020000001EBC10202EB0111401EB0FBF1F0401CDC
:10201000C0F30B0040F4804040F400402168CA69DE
:102020004CF6FF739A431043C861D4E9071001438B
:102030002068026822F0C00211430160D4E9030164
:1020400001432068826848F2FF339A43114381605C
:10205000D4E9050108432168CA6822F0FF02104351
:10206000C86001E00EE016E02068016841F001015F
:1020700001602564202084F83D00256384F83E50EB
:10208000002070BD01EB4106431EB3FBF6F35B1C61
:10209000B3E70120C2E701EB4101401EB0FBF1F0C4
:1020A000401CC0F30B00B7E7A086010080841E002F
:1020B00000093D0040420F002DE9FF4F81B08946E5
:1020C0000446FFF72FFF054694F83D004FF0000847
:1020D00020287DD11923012250492046009501F086
:1020E000E7FA002874D194F83C00012870D0012050
:1020F00084F83C0020680168C90703D1016841F0F9
:10210000010101602068016821F400610160242060
:1021100084F83D00002626644148E0624FF0011B30
:1021200020272068016841F4807101600095002239
:1021300059462046049B01F0BBFA50B12068006864
:10214000C00502D54FF400702064032005B0BDE83F
:10215000F08F216809F0FE000861FFF7E3FE2168B7
:10216000054648694969C0F34000C1F380214FF03A
:10217000A00A0FE0FFF7D6FE411B0498814200D869
:1021800008B984F83DA0216848694969C0F3400056
:10219000C1F3802194F83D20A02A02D008B900297B
:1021A000E8D084F83D7020684169C943890716D496
:1021B000016841F400710160206841698069192358
:1021C000012216492046009501F072FAB8B900E0E4
:1021D00021E084F83D7084F83C600020B6E7016897
:1021E00041F40071016021686FF480604861192337
:1021F00001220A492046009501F05AFA08B101204F
:10220000A4E7039808F1010880458AD384F83D705B
:1022100084F83C60F3E7022098E700000200100019
:102220000000FFFF2DE9F84F1F4690468A460446FE
:10223000DDF82890FFF776FE054694F83D0020284B
:102240007FD11923012240492046009501F030FA40
:10225000002876D194F83C00012872D0012084F83F
:102260003C0020680168C90703D1016841F0010101
:1022700001602068016821F400610160212084F878
:102280003D00102084F83E0000262664C4F8248017
:102290006785608D20852D48E0622B464A46514671
:1022A000204601F013F990B92068416980690090D7
:1022B00036E02A464946204601F0ACFA50B1206C7F
:1022C000042804D12068016841F4007101600120F4
:1022D000BDE8F88F606A216800780861606A401C78
:1022E0006062618D491E6185218D491E89B22185FB
:1022F00022685369DB435B070BD451B1007810614E
:10230000606A401C6062608D401E6085208D401EAA
:1023100020852A464946204601F0A4F90028CED15E
:10232000208D0028C5D154F83D0B016841F400719F
:102330000160202004F81E09E67766770020C7E7D1
:10234000FFE70220C4E70000020010000000FFFFCA
:102350002DE9FF4F83B09A46DDE911979346044675
:10236000DDF84080FFF7DEFD054694F83D002028AB
:1023700070D11923012271492046009501F098F986
:102380000028F5D194F83C00012863D0012084F89E
:102390003C0020680168C90703D1016841F00101D0
:1023A00001602068016821F400610160222084F846
:1023B0003D00402084F83E0000262664C4F82480B6
:1023C000A4F82A90608D20855D48E062CDE9007513
:1023D00053465A462046049901F0C6F800287CD19D
:1023E000208DD0B1012821D00228206824D0416955
:1023F00080690090208D032869D801282BD051498D
:1024000002283B464FF00002009559D088462046EE
:1024100001F04EF9002860D13CE0206841698169F3
:102420000091016841F40071016077E02068016863
:1024300021F480610160F0E7016821F480610160AE
:102440002068016841F40061016020684169806989
:10245000009063E06FE02A463946204601F0A7F974
:1024600098BB20680069616A08704EE020680168C6
:1024700041F40071016020680069616A0870606A57
:10248000401C6062218D491E2185618D491E618538
:10249000216838E02068016821F4806101602068CB
:1024A0000069616A0870606A401C6062208D401E8D
:1024B0002085608D401E60853B4600224146009588
:1024C000204601F0F5F800B9D0E706E0FFE72A461C
:1024D0003946204601F06BF918B1012007B0BDE87C
:1024E000F08F20680069616A0870606A401C606251
:1024F000218D491E2185618D491E618521684A69AA
:10250000D24352070AD409690170606A401C6062B4
:10251000208D401E2085608D401E6085208D002806
:102520007FF468AF202084F83D0084F83E6084F892
:102530003C600020D2E70220D0E70000020010003B
:102540000000FFFF040001002DE9F04186B00446C1
:1025500014216846FEF7EDF82F4A2168DFF8BC80A9
:1025600000242E4812250326042708F11008914262
:102570001CD1016841F002010160006802AA00F06C
:1025800002000590C020CDE9000582E8D000694630
:102590002348FFF7CDFBD8F8001041F40011C8F82C
:1025A0000010D8F8000000F4001031E01D4A9142FC
:1025B0002FD1016841F004010160016801F00401BC
:1025C0000591016841F0010101600068694600F071
:1025D000010005905015CDE9000502AA124882E8D5
:1025E000D000FFF7A5FB4FF48070CDE9000502AAEB
:1025F000694682E8D0000D48FFF79AFBD8F8001032
:1026000041F40001C8F80010D8F8000000F4000000
:10261000059006B0BDE8F08100540040303802401B
:1026200000040240005C004000080240000002403C
:10263000024881680278114481607047A800002038
:102640000B4810B5016841F400710160016841F464
:1026500080610160016841F480710160032000F035
:102660006FF80F2000F006F800F024F8002010BDED
:10267000003C024070B50D4D04464FF47A71287845
:10268000B1FBF0F00A490968B1FBF0F000F00CFB77
:1026900048B9102C07D200222146501E00F030F815
:1026A00000206C6070BD012070BD0000A8000020FB
:1026B000B40000200A4808B5016841F48041016077
:1026C000006800F4804000900548001F016841F058
:1026D00080510160006800F08050009008BD00004B
:1026E00044380240002809DB00F01F02012191401C
:1026F0004009800000F1E020C0F8001170470000A0
:10270000F0B40E4B1B680C46C3F30223C3F107055C
:10271000042D00D90425191D072901D2002300E04A
:10272000DB1E012606FA05F1491E214099409E4014
:10273000761E16403143F0BC01F02FBC0CED00E0DA
:10274000064900F0070208684FF6FF03184040EA08
:102750000220034A10430860704700000CED00E0BF
:102760000000FA052DE9F0470E46050065D0DFF8B8
:102770001481D8F80000F7B200F00700B04207D289
:1027800088F80070D8F8000000F00700B04254D17B
:1027900028683D4C810712D5400703D5206840F4D6
:1027A000E05020602878000703D5206840F460409E
:1027B00020602068A96820F0F00008432060287895
:1027C000C0072DD0304968680839012812D0022886
:1027D00013D0032811D00968890700292DDA216850
:1027E00021F0030101432160FFF79CFB814641F288
:1027F000883A0EE009688903EFE709688901ECE788
:10280000FFF790FBA0EB0901514502D90320BDE879
:10281000F0872068696800F00C00B0EB810FEFD101
:10282000D8F80010404601F00701B14207D90770FF
:10283000006800F00700B04201D00120E7E72878E7
:10284000400705D52068E96820F4E050084320607F
:102850002878000706D52068296920F4604040EAFE
:10286000C100206000F038F82168084AC1F3031164
:10287000515CC8400649086006480068FFF7FAFE48
:102880000020C4E7003C0240083802406A600008AB
:10289000B4000020AC000020044805490068096825
:1028A000044AC1F38221515CC8407047B400002043
:1028B000083802407A600008044805490068096841
:1028C000044AC1F34231515CC8407047B400002053
:1028D000083802407A600008154810B5006810F00A
:1028E0000C02144813D01449042A0FD0082A0ED120
:1028F0000F4C241F2268236802F03F025B0207D5B9
:102900002068C0F38810A0FB010106E0084610BD56
:102910002168C1F38811A1FB00010023FDF7C0FC71
:102920002168C1F30141491C4900B0FBF1F010BD21
:10293000083802400024F40040787D012DE9F84F6A
:1029400004006ED02078DFF84C93C007A9F104058D
:102950004AD009F104000168C1F38101012908D0BE
:102960000068C0F3810002280AD1D9F800004002B3
:1029700006D52868800337D560680028E1D033E0A9
:102980006068B0F5803F10D0B0F5A02F286810D057
:1029900020F480302860286820F480202860606857
:1029A000A8B1FFF7BFFA06460DE0286840F4803072
:1029B000F4E740F480202860F7E700BFFFF7B2FAA1
:1029C000801B642873D828688003F7D50CE0FFF7D4
:1029D000A9FA064605E000BFFFF7A4FA801B6428A9
:1029E000F0D828688003F7D42078DFF8AC8280071D
:1029F0004FF0000A3ED5A748001D016811F00C0FEA
:102A000008D00068C0F3810002280BD1D9F800007B
:102A1000400207D42868800716D5E068012800D155
:102A200012E033E1E068B8B10120C8F80000FFF718
:102A300079FA064605E000BFFFF774FA801B02280A
:102A4000C0D828688007F7D52868216920F0F800E9
:102A500040EAC10028600DE0C8F800A0FFF762FA64
:102A6000064604E0FFF75EFA801B02281FD828689C
:102A70008007F7D42078000722D5864F8748616900
:102A8000703771B101210160FFF74CFA064604E08E
:102A9000FFF748FA801B022809D838688007F7D565
:102AA0000EE0C0F800A0FFF73DFA064605E082E020
:102AB000FFF738FA801B02287DD838688007F7D4E2
:102AC0002078400768D5DFF8CCB100270BF13C0B2C
:102AD000DBF80000C0000BD4DBF8001041F080519F
:102AE000CBF80010DBF80000012700F080500090C8
:102AF0006B4E3068C00510D4306840F48070306090
:102B0000FFF710FA009005E0FFF70CFA0099401A61
:102B1000022850D83068C005F6D55E4EA0686C36E5
:102B200001280FD00528306810D020F00100306057
:102B3000306820F004003060A068B8B1FFF7F2F907
:102B400000900FE0306840F00100F4E740F004002E
:102B50003060F7E7FFF7E6F90099411A41F2883053
:102B6000814266D830688007F4D50EE0FFF7DAF9C5
:102B7000009007E0FFF7D6F90099411A41F288303A
:102B8000814256D830688007F4D42FB1DBF80010AA
:102B900021F08051CBF80010A069C8B33D49091D50
:102BA0000968C1F3810102294AD00228504607D0A2
:102BB000C8F8600000E03CE0FFF7B4F904463BE0F1
:102BC0004746C8F86000FFF7ADF9064605E000BFCC
:102BD000FFF7A8F9801B02282BD828688001F7D4BA
:102BE000D4E907010843A16A2E4A490802EB0141D2
:102BF000626A41EA8211084394F82C1040EA0161AC
:102C0000C9F8001001203866FFF78CF9044606E089
:102C10003EE000BFFFF786F9001B022809D82868AC
:102C20008001F7D534E000BFFFF77CF9001B0228D4
:102C300002D90320BDE8F88F28688001F4D427E08A
:102C40000128F7D0D9F80000E26900F48001914230
:102C50001CD1226A00F03F01914217D147F6C071A2
:102C6000626A0140B1EB821F10D1A26A4FF0FF33BC
:102C700000F4403103EB5202B1EB024F06D194F85D
:102C80002C1000F07060B0EB016F01D00120D1E793
:102C90000020CFE70438024000004742800E474240
:102CA000007000400000FFFF10B5401EB0F1807FB3
:102CB00001D3012010BD4FF0E02460610F216017A7
:102CC00001F06BF90020A06107202061002010BDF9
:102CD0007047704770B590F83C20012A2CD0012431
:102CE00080F83C40022280F83D2003685A689D68C5
:102CF00022F070060A6832435A60104B02689A420A
:102D00000ED0B2F1804F0BD00D4B9A4208D00D4B34
:102D10009A4205D00C4B9A4202D00C4B9A4204D1F5
:102D2000496825F080031943916080F83D400021F7
:102D300080F83C10084670BD022070BD00000140C4
:102D40000004004000080040000C0040004001402A
:102D500010B5040003D094F83D0010B107E0012045
:102D600010BD002084F83C00204600F01FF802202F
:102D700084F83D00211D206800F0B2FF012084F896
:102D8000460084F83E0084F83F0084F8400084F850
:102D9000410084F8420084F8430084F8440084F839
:102DA000450084F83D00002010BD000008B5006813
:102DB0000B49884212D10B48016841F004010160BF
:102DC0000068002200F00400009011461E20FFF76A
:102DD00097FCBDE808401E20FFF784BC08BD00003A
:102DE000000800404038024090F83D10012901D011
:102DF00001207047022180F83D100168CA6842F046
:102E00000102CA6000680E4988420ED0B0F1804FBE
:102E10000BD00C49884208D00B49884205D00B4999
:102E2000884202D00A49884204D1816801F0070132
:102E3000062903D0016841F00101016000207047BC
:102E4000000001400004004000080040000C004069
:102E50000040014070B5044690F83C000025012870
:102E600017D0012684F83C60022084F83D002068D9
:102E7000826822F0770222F47F428260086850283C
:102E800038D00DDC20284FD005DC90B3102811D1AC
:102E90004AE0022070BD302846D040280AD13BE0ED
:102EA00060282FD070280DD0B0F5805F03D0B0F52A
:102EB000005F12D0012584F83D60002084F83C00BA
:102EC000284670BDCB68D1E90121206800F054FF8D
:102ED0002068816841F0770109E0CB68D1E90121E0
:102EE000206800F049FF2068816841F480418160DA
:102EF000E1E719E0CA684968206800F04FFF5021F7
:102F0000206806E0CA684968206800F058FF602120
:102F1000206800F03BFFCEE7CA684968206800F0EF
:102F20003DFF40212068F4E7226801461046F0E7A3
:102F3000704770B50446006801694FF00005C94349
:102F4000890715D4C168C943890711D4E91E0161F5
:102F500001202077206880698007204602D0FFF793
:102F6000E7FF04E000F098F8204600F096F8257797
:102F700020680169C943490717D4C168C943490793
:102F800013D46FF00401016102202077206880696A
:102F900010F4407F204602D0FFF7CAFF04E000F0A3
:102FA0007BF8204600F079F8257720680169C9434D
:102FB000090716D4C168C943090712D46FF0080184
:102FC0000161042020772068C0698007204602D074
:102FD000FFF7AEFF04E000F05FF8204600F05DF878
:102FE000257720680169C943C90617D4C168C94358
:102FF000C90613D46FF01001016108202077206802
:10300000C06910F4407F204602D0FFF791FF04E032
:1030100000F042F8204600F040F82577206801696A
:10302000C943C90708D1C168C943C90704D1891E6A
:103030000161204600F032F820680169C9430906A1
:1030400009D4C168C943090605D46FF08001016144
:103050002046FFF73DFE20680169C943490609D4AF
:10306000C168C943490605D46FF04001016120469B
:1030700000F0D0F820680169C94389060BD4C16803
:10308000C943890607D46FF0200101612046BDE8DD
:103090007040FFF71EBE70BD7047704770B5554C4D
:1030A0002DED048B606A052822D1D4E902106268F4
:1030B00040EA010313434FF0000503D0002A1ADD54
:1030C000521E24E0656020693C280EDB3C2190FB09
:1030D000F1F201FB1202A26090FBF1F201FB12027D
:1030E000801A90FBF1F0E06000E0A06004206062D4
:1030F000BDEC048B70BD3B22002903DD491EC4E9F1
:10310000012105E0002803DD401EC4E902206260C1
:103110000146A0684FF00106014300D126626068B5
:103120000143354803D0216A01291CD000E0256203
:1031300001224021FEF7F1FE606940F698019FED03
:103140002F9B9FED308B88421CDC00BF94ED120B4F
:1031500053EC182B51EC100B02F0FEF941EC100B64
:1031600053EC192B24E0E169012905D0012240210B
:10317000FEF7D3FEE661DFE700224021FEF7CDFE39
:10318000E561D9E7A0F55061AC3903D0A0F5A851AD
:103190007C39DBD194ED120B53EC182B51EC100B56
:1031A00002F0DAF99FED191B41EC100B53EC112BD7
:1031B00051EC100B02F0CAFB94ED141B53EC112BD5
:1031C00002F016F9C4E9140194ED120B53EC182B1C
:1031D00051EC100B02F0C0F994ED161B53EC112BBF
:1031E00002F006F9C4E9160194ED140B84ED180BF6
:1031F0007EE700001800002000100240F5E7ECAE6A
:10320000FDAED93F0000000000408F402D4CD7FAA2
:10321000BF36DE3F704770B5040004D094F83D001F
:10322000002510B106E0012070BD84F83C50204616
:1032300000F022F8242084F83D002068C16821F4C1
:103240000051C160204600F0CDFD2068016921F4E5
:10325000904101612068416921F02A0141612068A3
:10326000C16841F40051C1602564202084F83D000C
:1032700084F83E00002070BD30B587B004461421AC
:103280006846FDF756FA234D2268002122480223A2
:103290000324AA421BD1204A1032156845F4003598
:1032A0001560126802F400320592026842F00102D1
:1032B00002600068CDE9021400F0010005900C20C6
:1032C000CDE9000307200490694614481DE0144D21
:1032D000AA421CD1104A1432156845F02005156029
:1032E000126802F020020592026842F004020260B5
:1032F0000068CDE9021400F004000590C020CDE97B
:1033000000030820049069460648FEF711FD07B047
:1033100030BD000000440040303802400000024050
:1033200000140140000802402DE9F84F044690F8CF
:103330003E009A4616460D46202853D1FDB1F6B1FF
:1033400094F83C0001284DD0012084F83C0000276F
:103350002764222084F83E002763FEF7E3FDA6855C
:103360008146E685A0684FF48058404501D1206928
:1033700040B12E465FF0000584F83C7027E0012044
:10338000BDE8F88F0026F7E74B46002220212046B3
:10339000CDF800A000F0ACFD08B10320F0E726B1A5
:1033A000A06840451BD038B108E020684068C0F3F1
:1033B000080025F8020B07E0206980B1206840680A
:1033C00000F07F0006F8010BE08D401EE085E08DE7
:1033D0000028D9D1202084F83E000020D0E72068C2
:1033E0004068EFE70220CBE72DE9F843044690F868
:1033F0003D001F4616460D4620284CD1C5B1BEB132
:1034000094F83C00012846D0012084F83C004FF09D
:103410000008C4F84080212084F83D00FEF782FDBA
:10342000A6848146E684A068B0F5805F03D004E0FE
:103430000120BDE8F883206928B12E465FF0000521
:1034400084F83C800EE00026FAE78021204600F058
:103450004FFDA0B9AEB116F8010B21684860E08CB1
:10346000401EE084E08C4B464FF00002009700289D
:10347000EBD14FF04001204600F03AFD30B103207F
:10348000D7E735F8020BC0F30800E6E7202084F800
:103490003D000020CDE70220CBE7FEE701684A6946
:1034A000D24352050FD46FF480624A61002140F884
:1034B000301F202242738173026942F004020261CC
:1034C000017301207047002070470000F8B50446E2
:1034D000C06A1E460D461746082807D0012805D0A9
:1034E00010F5803F02D0206B122804D120680168BB
:1034F00041F480710160134600224FF00111204613
:10350000009600F0D5F840B120680068C00502D5EB
:103510004FF4007020640320F8BD2069B0F5804F9F
:103520000ED00620216800EAD51040F0F0000861B6
:1035300033463A460B49204600F0EEF878B902E0EF
:1035400005F0FE0000E0E8B2216808610549334655
:103550003A46891F204600F0DFF80028DCD0012021
:10356000F8BD0000080001002DE9F84F044600688E
:1035700089460B9D01689846174641F480610160B9
:103580002068016841F48071016000954FF0011BD3
:103590000022594620460A9B00F08AF84FF4007A30
:1035A00040B120680068C00501D5C4F840A00320E0
:1035B000BDE8F88F216809F0FE0008612B46284914
:1035C00020460A9A00F0A8F8F0BB2068416980699B
:1035D00000902A4620460A9900F01CF940B1206C60
:1035E00004283AD12068016841F40071016034E098
:1035F000FEB2B8F1010F09D02168380A08612A46E5
:1036000020460A9900F006F90028E8D120680661F2
:103610002A4620460A9900F0FDF80028DFD12068EC
:10362000016841F4807101600095002259462046EE
:103630000A9B00F03DF80028B3D1216809F0FF0093
:1036400040F00100086100E007E02B4604492046F5
:103650000A9A00F061F80028AAD00120A8E700002B
:103660000200010070B516460D4604460DE02046E6
:10367000FFF714FF08B1012070BD681C05D0FEF7EC
:1036800051FC801BA84207D835B120684069C0436F
:103690004007ECD4002070BD002044F8300F2021FA
:1036A0006173A073216941F0200121612073E2E779
:1036B0002DE9F0471E4690460D460446C1F30747E4
:1036C000DDF8209008E0701C06D0FEF72BFCA0EB84
:1036D0000900B0420FD876B12068012F18D0806958
:1036E00025EA00000004000C14D000214145EAD076
:1036F0000020BDE8F087002044F8300F20216173DE
:10370000A073216941F02001216120730120F0E7BD
:103710004069E5E70121E9E72DE9F0479A4691463E
:103720000E46044600254FF02008C1F3074725E068
:1037300020684069C043400514D42068016841F402
:103740000071016021686FF480604861256384F82E
:103750003D8084F83E50206C40F00400206484F8E2
:103760003C501FE0B9F1FF3F08D0FEF7DBFBA0EBB8
:103770000A0149450CD8B9F1000F09D02068012F82
:1037800013D0806926EA00000004000C0BD0CFE7BC
:1037900044F8305F84F80D80A573206940F0200064
:1037A000206125730120BDE8F0874069EAE72DE933
:1037B000F041002590460E460446202717E0406958
:1037C000C043C0060CD454F8301B6FF010004861A1
:1037D00044F810596777A577206A2062257717E0AB
:1037E000FEF7A0FBA0EB0800B04208D83EB120686D
:1037F0004169C9434906E2D40020BDE8F08144F89C
:10380000305F6773A573206940F020002061257345
:103810000120F2E770B516460D4604460DE020463D
:10382000FFF73CFE08B1012070BD681C05D0FEF713
:1038300079FB801BA84207D835B120684069C04396
:103840000006ECD4002070BD002044F8300F202189
:103850006173A073216941F0200121612073E2E7C7
:103860000449082801D0002803D1C871202000F0A5
:10387000DFB870470000002010B5012000F0B2F85A
:103880000A20FEF743FA03480021C170012181702C
:1038900010BD00000000002010B5012000F0A2F8CB
:1038A0004FF47A70FEF732FA022000F09BF8052000
:1038B000FEF72CFA282000F095F80520FEF726FAEE
:1038C0000C2000F08FF80520FEF720FA802000F091
:1038D00089F8BDE810404FF4FA70FEF717BA0000FF
:1038E0002DE9F047304D00260446EE7071B30129F2
:1038F0002FD12E49002000BF41F82040401C641CFD
:10390000C828F9DB89460868FCF7C2FE2871264FF3
:10391000A8780837391811F8011C00F049F8A9787F
:1039200007F1040808EB010010F8014C1AE0641CD0
:1039300000F07EF8E878401CC0B2E870142805D189
:10394000A8780021401C00F033F8EE7020780028A1
:10395000EDD1BDE8F08700BF59F82400007800F0F1
:1039600067F8641C28798442F6DBA978781810F887
:10397000012C521E12F0FF0200F8012CE9D10122A5
:10398000414400F8012C11F8012C521CD2B201F86C
:10399000012C2B799A42DCD1142200F8012C01F879
:1039A000016C2E71D5E7000000000020B800002057
:1039B0000A4A9070421E032A0ED84A1E132A0BD8B8
:1039C000074A00EB800002EB8000084410F8150C59
:1039D00040F0800000F006B87047000000000020B2
:1039E0001A60000838B5104C627800EA020102EA59
:1039F0000010E27911431043617104F11002A071CB
:103A000041F004031370517040F004019170D070C4
:103A100000F0B2FBC8200090042304F110022178CA
:103A20000248FEF7FFFB38BD00000020D80300204D
:103A300038B5124C627800EA020102EA0010E2791D
:103A400011436171104341F0050304F11002A071AC
:103A5000137041F00101517040F00501917040F088
:103A60000100D07000F088FBC8200090042304F10E
:103A7000100221780248FEF7D5FB38BD0000002077
:103A8000D803002070B53220FEF740F900F074FB37
:103A9000054D4FF47A742346032229780348FEF734
:103AA0000BFB0028F7D170BD00000020D8030020D8
:103AB0007FB50024144800940194029411490394A2
:103AC000C0E90014846001250461057680F8204077
:103AD0000E49C0E90A14C561C46080F830404561F0
:103AE000FDF7DFFF08B172B6FEE70720CDE900055C
:103AF000694602940448FDF72BFF002801D072B6F6
:103B0000FEE77FBD00200140400600200100000FBD
:103B1000F0B587B014216846FCF70BFE2948002455
:103B2000016841F010010160016801F01001059188
:103B3000016841F001010160016801F00101059196
:103B4000016841F004010160016801F00401059180
:103B5000016841F008010160016801F00801059168
:103B6000016841F0020101600068174E00F0020098
:103B70004FF4C8650590002229463046FEF7CDF97E
:103B8000124F0022F0213846FEF7C7F900950125B3
:103B9000CDE90154694630460394FEF7C9F80F2079
:103BA0008DE8310069463846FEF7C2F8F0200090F3
:103BB000CDE90154694638460394FEF7B9F807B0D9
:103BC000F0BD00003038024000100240000C0240FE
:103BD00010B586B000241748009401940294039411
:103BE00004941349059401604FF47A51C0E901141B
:103BF0000911C0E903148461FFF7AAF808B172B68D
:103C0000FEE74FF48050009069460A48FFF722F91A
:103C100008B172B6FEE7049404A906480594FFF7BC
:103C200059F8002801D072B6FEE706B010BD0000BA
:103C30000008004030070020FEE7FEE770477047AD
:103C4000FEF7F6BC10B592B030216846FCF771FD66
:103C500014210CA8FCF76DFD18480024016841F000
:103C600080510160006800F0805011901448016894
:103C700021F4404141F4004101600068069400F4E1
:103C800040401190022000900120039010200490E9
:103C90006846FEF753FE08B172B6FEE70F20CDE985
:103CA0000C040E940F9400210CA81094FEF75AFDFA
:103CB000002801D072B6FEE712B010BD40380240B5
:103CC000007000400248016841F4700101607047D3
:103CD00088ED00E00148FFF72CB900003007002014
:103CE000F0B502681D4B1E4C9F031E4D1E4E9842A0
:103CF00007D0B84205D0A04203D0A84201D0B042BC
:103D000004D122F0700C4A6842EA0C02984210D0AA
:103D1000B8420ED0A0420CD0A8420AD0B04208D07F
:103D2000124CA04205D0124CA04202D0114CA0422D
:103D300003D122F44074CA6822434C6922F0800205
:103D4000224302608A68C2620A688262984201D194
:103D50000969016301214161F0BD000000000140DB
:103D60000004004000080040000C004000400140FA
:103D7000004401400048014010B5846842EA032233
:103D800024F47F440A432243826010BD826822F0FB
:103D900070020A4342F007018160704710B5036A60
:103DA000046A24F001040462846924F0F00444EA03
:103DB000021423F00A020A438461026210BD10B5A6
:103DC000036A23F0100303628369046A23F47043D7
:103DD00043EA023224F0A00343EA01118261016246
:103DE00010BD000070B5044600680169E26821F466
:103DF0004051114301612169A068E269084361698A
:103E0000114308432168CA6849F20C639A4302438C
:103E1000CA6020684169A26921F44071114341617F
:103E200031492068884202D03049884202D1FEF7E9
:103E300043FD01E0FEF730FDE2690023192164250E
:103E40003226B2F5004F626828D0A0FB0101930F23
:103E50009200FCF725FA0146B0FBF5F06FF018026E
:103E6000504301EB800006EB0010B0FBF5F000F0D2
:103E7000F002B1FBF5F002EB0012B1FBF5F06FF0D0
:103E80001803584301EB800006EB0010B0FBF5F07F
:103E900000F00F0021681044886070BDA0FB010194
:103EA00092185B41FCF7FCF90146B0FBF5F002010A
:103EB000B1FBF5F06FF01803584301EB800006EBFF
:103EC000C000B0FBF5F000F0F80002EB4002B1FBDF
:103ED000F5F0584301EB800006EBC000B0FBF5F0B5
:103EE00000F00700D6E70000001001400014014078
:103EF0002DE9F041984617460E460446069D27E0F8
:103F0000681C25D02DB1FEF70DF8A0EB0800A842E3
:103F10001ED920680C3050E8001F21F4D07140E811
:103F20000012002AF5D12068143050E8001F21F05B
:103F3000010140E80012002AF5D1202084F83D005C
:103F400084F83E00002084F83C000320BDE8F081A6
:103F50002068006836EA000004D00020B842CFD0C4
:103F60000020F3E70120F9E7FEE703B401984100E0
:103F7000009850EAC12018BF04204A0D18BF40F035
:103F8000010040F2FF72B2EB515F08BF40F0020047
:103F9000012808BF052002B070470907090E002854
:103FA00004DB00F1E02080F80014704700F00F00FF
:103FB00000F1E02080F8141D704700B52DED048B52
:103FC000B0EE409AF0EE609A83B051EC190B01F01C
:103FD000F1FD41EC180B18EE100A18EE901A8DED59
:103FE000008B002818BF0120084320F00040C0F1DA
:103FF0007F6000F1E040C00F14D019EE101A19EEE6
:10400000900A8DED009B002918BF0121084320F084
:104010000040C0F17F6000F1E040C00F04BF01200C
:10402000FCF7B6FBB0EE480A03B0F0EE680ABDEC50
:10403000048B00BD30380A2801D2012070470020CF
:10404000704700F00F01000900EB800001EB400019
:10405000704700002DE9F047404C06462DED048BDB
:1040600040F6E44A00259FED3E8B04F180083CE0D9
:10407000FDF77AFBE06201F003FC894649EC100B86
:1040800094ED0E9B074653EC192B51EC100B01F0ED
:104090005DFE53EC182B01F059FC53EC192B01F089
:1040A000A7F941EC100B49EC117B84ED0E0B53EC9E
:1040B000102B51EC110B01F049FE41EC100B84ED7B
:1040C0001C0B53EC102B01F041FC41EC100B47464C
:1040D00084ED1E0B53EC102B98ED020B51EC100BE2
:1040E00001F086F9C7E902016D1CB542C0D3304624
:1040F00001F0DDFB41EC100B454653EC102B98ED25
:10410000020B51EC100B01F027FA41EC100BFFF7FA
:1041100054FFB0EE409AF0EE609A504601F0B0FBCA
:104120009FED111B53EC112B01F016FA53EC182BD9
:1041300001F00CFC94ED101B53EC112B01F006FC6C
:1041400053EC192B01F002FC9FED091B41EC100B05
:1041500085EC040BBDEC048BBDE8F0871800002053
:10416000000000000000303F0000000000408F40D1
:10417000000000000000000070B52A221249134818
:10418000FCF7A5FA104C608D104D6885E06AE86276
:10419000206B2863092204F1340105F13400FCF797
:1041A00096FA94F83D0085F83D0094F83E0085F8B5
:1041B0003E00206C2864606C6864A06CA864E06CAD
:1041C000E864206D286570BDDC060020D80300205F
:1041D0002DED108BB6B000204FF001092A90FEF7AC
:1041E0002FFAFFF72FFDFFF793FCFD48FB49FD4C2D
:1041F000002580E832004FF48048C0E9035845614B
:104200008561C5610562FDF793FE08B172B6FEE7F0
:10421000F348F5499C304FF416570160C0E9017529
:104220000C26C560C0E904568561C561FEF7F3FF41
:1042300008B172B6FEE7FFF73BFCFFF7C9FCE848A0
:10424000EA49E0300160C0E90175C560C0E9045683
:104250008561C561FEF7DFFF08B172B6FEE7E04891
:10426000E349543880E83200C0E90358456185616C
:10427000C5610562FDF75CFE08B172B6FEE7FFF7A7
:1042800001FCFFF709FB0820FFF7EAFAD448543095
:10429000FEF7AAFDFFF7F0FADFF858A3012240214C
:1042A0005046FDF73AFED44F9FEDD4DB9FEDD5EBA2
:1042B0009FEDD68B07F1190B9FEDD69B9FEDD7CBCA
:1042C000C74814230822D7499C30FFF78DF8CA4904
:1042D000FA231922A1F1C000FFF726F837F8030FDF
:1042E00040BA01F0E4FA53EC1D2B01F035F901F06E
:1042F0004DF8C14E383E30607888397940BA40EA8E
:104300000160797940EA014001F0D1FA53EC192BB0
:1043100001F022F901F03AF87060F888397A40BA71
:1043200040EA0160797A40EA014001F0C0FA53ECBA
:104330001D2B01F011F901F029F8B0607889397B63
:1043400040BA40EA0160797B40EA014001F0AFFAEF
:1043500053EC192B01F000F901F018F8F060F8891E
:1043600040BA01F0A4FA53EC1D2B01F0F5F801F06E
:104370000DF83061388A40BA01F099FA9FEDAABB76
:1043800053EC1B2B01F0E8F801F000F87061788A1B
:10439000FF1E40BA308342F21070FFF75BFEA14C63
:1043A000B0EE48AA303CF0EE68AA84ED1A0B53EC4C
:1043B0001A2B51EC100B01F08DFA02D284ED1ACBBE
:1043C00033E094ED1A0B53EC1A2B51EC100B01F067
:1043D000BBFB15D294ED1A0B53EC1E2B51EC100BBA
:1043E00001F078FA0CD2B0EE4A0AF0EE6A0A53EC09
:1043F000102B94ED1A0B51EC100B01F0A7FC12E0FE
:1044000094ED1A0B53EC1E2B51EC100B01F09CFB9E
:104410000BD29FED870B53EC102B94ED1A0B51EC44
:10442000100B01F093FAC4E91A0194ED1A0B53EC46
:104430001A2B51EC100B01F04DFA01D284ED1ACB7E
:10444000606A94ED1AAB002850D001287DD0022874
:104450007CD003287BD004287AD0052879D0062880
:104460007FF42EAF0122402156465046FDF755FD00
:104470002562FFF701FA4FF40078002241463046EA
:10448000FDF74BFD01210846FFF792FA00216AA0D3
:10449000FFF726FA01210220FFF78AFA00216CA01B
:1044A000FFF71EFA01210320FFF782FA00216EA018
:1044B000FFF716FA00F02EFE60700128DDD06428A8
:1044C000DBD104206062FDF70BFA4B481C38816891
:1044D00012914168289101681F9101691E914169FB
:1044E0000991806900F5FA60299083E156464FF4FE
:1044F0000078002241463046FDF70FFD01210846B5
:10450000FFF756FA00215EA0FFF7EAF90121022029
:10451000FFF74EFA00215EA0FFF7E2F90121042027
:10452000FFF746FA00215BA0FFF7DAF900F0F2FD91
:1045300060700128DDD064281FD0632834D00321A7
:104540000220FFF735FA206904E031E0F2E054E19F
:10455000DBE1FDE3617800EB800001EB4002303AE3
:1045600052A105A82261FBF713FF002105A8FFF760
:10457000B7F9C820FDF7CAFBBBE7656020693C2896
:104580000EDB3C2190FBF1F201FB1202A26090FBDA
:10459000F1F201FB1202801A90FBF1F0E06001E001
:1045A000C4E902050120BBE02561FFF765F9A0E73A
:1045B00001210846FFF7FCF900213DA0FFF790F923
:1045C00001210220FFF7F4F9002131A0FFF788F95B
:1045D00001210320FFF7ECF900216FE0005C0040AF
:1045E000DC060020A08601000044004000140140C9
:1045F0000054004000100240380800200000000075
:1046000000002440000000000000E03F9A999999C2
:104610009999A93F0000000000408F400000000071
:104620000000000048000020000000000000594089
:10463000713D0AD7A370ED3F3D3D20446179612073
:104640004265726C6562696821203D3D0000000092
:10465000206B7572616E67692070656D616B616951
:10466000616E2120000000002020202020285465B9
:104670006B616E20442920202020202000000000B3
:1046800057616B747520286D656E6974293A000056
:104690003E200000433A20636C656172207C204418
:1046A0003A207375626D697400000000256C640027
:1046B000446179612028564129203A00FEA0FFF785
:1046C0000FF901210420FFF773F90021AFF23C003C
:1046D000FFF706F900F01EFD607001283FF468AF97
:1046E00064281CD063281DD062281FD0032102201B
:1046F000FFF75EF96069617800EB800001EB400232
:10470000303AAFF2580105A86261FBF741FE002183
:1047100005A8FFF7E5F8C820FDF7F8FA48E70220FA
:104720006062E0E06561FFF7A7F841E76561256138
:1047300065625FE0E54E002210213046FDF7EDFB9B
:1047400001210846FFF734F90021E1A0FFF7C8F87E
:1047500001210220FFF72CF90021AFF2CC00FFF776
:10476000BFF801210320FFF723F90021D2A0FFF7B2
:10477000B7F801210420FFF71BF90021AFF2EC008C
:10478000FFF7AEF800F0C6FC60700128D3D06428B3
:104790001CD063281CD0622823D003210220FFF7FD
:1047A00007F960788DF8000001226946CB48FBF7D5
:1047B0004BFFCA4ACAA105A8FBF7EAFD002105A8DC
:1047C000FFF78EF8C820FDF7A1FAB4E70320A7E7AA
:1047D000002059460D54401C0D28FBDBFFF74CF818
:1047E000A9E7002059460D54401C0D28FBDB012091
:1047F00065616062FFF740F862E5B44E0022102167
:104800003046FDF78AFB01210846FFF7D1F8002169
:10481000B4A0FFF765F801210220FFF7C9F80021D5
:10482000AFF29410FFF75CF801210320FFF7C0F806
:104830000021A1A0FFF754F801210420FFF7B8F8E8
:104840000021AFF2B010FFF74BF800F063FC60708E
:104850000128D3D064281CD0632848D062284AD0CD
:1048600003210220FFF7A4F8A069617800EB800023
:1048700001EB4002303AAFF2CC1105A8A261FBF780
:1048800087FD002105A8FFF72BF8C820FDF73EFAA9
:10489000B4E79749A0694FF00109884214D1052077
:1048A0006062FDF71DF88D48353881682C914168AC
:1048B0002B910168269101691D91416925918069BB
:1048C00000F5FA6027900EE0FEF7D6FF01210846BA
:1048D000FFF76EF8002187A0FFF702F84FF4FA60A7
:1048E000A561FDF713FAFEF7C7FFC82059E2A561DD
:1048F000FEF7C2FF82E70220A561606200205946F0
:104900000D54401C0D28FBDB74E72A9898B9FCF77E
:10491000E7FF724835388168129141682891016833
:104920001F9101691E9141690991806900F5FA6042
:10493000299001202A900122402156465046FDF739
:10494000ECFA00224FF400713046FDF7E6FAFEF76C
:1049500093FF9FED6EAB94ED160B53EC1A2B51ECBD
:10496000100B00F0F9FD41EC100B6AA153EC102B79
:1049700013A8FBF70DFD94ED180B53EC1C2B51EC19
:10498000100B00F041FF04D167A120A8FBF700FD48
:1049900011E09FED6A0B53EC102B94ED180B51ECCA
:1049A000100B00F025FD41EC100B66A153EC102B11
:1049B00020A8FBF7EDFC01210846FEF7F9FF0021D6
:1049C00065A0FEF78DFF01210220FEF7F1FF002117
:1049D00013A8FEF785FF01210320FEF7E9FF002160
:1049E00020A8FEF77DFF01210420FEF7E1FF6168AA
:1049F0000091D4E902325EA105A8FBF7C9FC0021B1
:104A000005A8FEF76DFFB9F1000F53D00121042076
:104A1000FEF7CEFF5BA118A8FBF7BAFC002118A88F
:104A2000FEF75EFF59A264215A48FBF7C7FCC2B2E9
:104A300058494FF47A762270334601F56470FEF7D8
:104A4000D3FC554933461E2201F5CE70FEF76CFCAF
:104A50004FF4FA784046FDF759F950A14E48FBF75C
:104A600005FE4046FDF752F91E214B48FBF761FE5B
:104A70004BA10AA8FBF78CFC01210420FEF798FF4C
:104A800000210AA8FEF72CFF48A264214148FBF749
:104A900095FCC2B23F492270334601F56470FEF7BF
:104AA000A3FC3D4933461E2201F5CE70FEF73CFCC7
:104AB000304681E065E100002020202020202020D9
:104AC000202020423A206261636B00000000024017
:104AD0004E6F20487020504C4E203A005108002064
:104AE0002573000050617373776F7264203A200061
:104AF00040E201002D2D50617373776F7264205373
:104B0000616C616821212D2D000000000000000073
:104B10000020AC40456E657267793D20252E344CEF
:104B200066206B57680000005461726966203D2062
:104B300052702E2035303030302E30000000000012
:104B4000006AE8405461726966203D2052702E254B
:104B50002E324C660000000050656E6767756E610E
:104B6000616E2053656C657361692120000000004F
:104B700054696D6572203A2025643A25643A2564AB
:104B800000000000436865636B2E2E0041540D0A3F
:104B9000000000002C040020200600204F4B0000E5
:104BA00053656E6420534D532E2E2E0041542B43DB
:104BB0004D47463D310D0A00FDF7A8F8FCA26421DF
:104BC000FE48FBF7FBFBC2B2FC492270334601F5FD
:104BD0006470FEF709FCFA4933461E2201F5CE70D7
:104BE000FEF7A2FB3046FDF791F8F6A26421F348E8
:104BF000FBF7E4FBC2B2F1492270334601F5647061
:104C0000FEF7F2FBEE4933461E2201F5CE70FEF7A9
:104C10008BFB3046FDF77AF8EDA26421E748FBF7FD
:104C2000CDFBC2B2E5492270334601F56470FEF750
:104C3000DBFBE34933461E2201F5CE70FEF774FB21
:104C40003046FDF763F81E21DD48FBF772FDE34BAC
:104C5000E3A26421D948FBF7B1FBC2B2D749227065
:104C6000322301F56470FEF7BFFB6420FDF74EF8B8
:104C7000DDE925200DF1040C279B1D998CE80F0020
:104C80002B980090DAA2C821CC482C9BFBF796FB0E
:104C9000C2B2CA492270642301F56470FEF7A4FB16
:104CA0006420FDF733F8DDE91E100DF1040C299B9B
:104CB000099A8CE80F0028980090DBA2C821BF4811
:104CC000129BFBF77BFBC2B2BC492270642301F547
:104CD0006470FEF789FB6420FDF718F81FED690B7F
:104CE00053EC102B94ED180B51EC100B00F080FBE3
:104CF00094ED160B8946804653EC1A2B51EC100BA1
:104D000000F02AFC0B4602468DE80C03CFA2C82116
:104D1000AA48FBF753FBC2B2A8492270642301F5ED
:104D20006470FEF761FB1A23D2A23221A348FBF77D
:104D300045FBC2B2A1492270322301F56470FEF72F
:104D400053FB6420FCF7E2FF33461E22CA4900E011
:104D50002AE0A2489538FEF7E7FA41F28830FCF7DE
:104D6000D5FFFEF789FD01210420FEF721FEC3A136
:104D70000AA8FBF70DFB00210AA8FEF7B1FD4FF0D2
:104D8000000900F0C7F96070012808D0642802D03B
:104D9000612802D003E0656201E04FF001094FF4A1
:104DA000FA60FCF7B3FF27E5FEF766FD012251022A
:104DB0005046FDF7B2F889485138006801F0B0F864
:104DC00041EC1F0BB1A153EC1F2B18A8FBF7E0FA25
:104DD00053EC1A2BAFA12DA8FBF7DAFA53EC1A2BE0
:104DE00051EC1F0B00F0B2FD41EC1F0BA04684ED0F
:104DF00012FB606900F044FD0E4646EC100B0446C1
:104E00009FEDA71B51EC100B53EC112B00F09EFDF6
:104E100046EC104B41EC1A0B53EC1F2B51EC100BD2
:104E200000F058FD02D80621C8F824104446D8F8EE
:104E3000140000F025FD53EC1A2B00F087FF94EDD1
:104E4000121B53EC112B00F045FD01D8012020620C
:104E5000606900F015FD53EC1A2B00F077FF94ED1C
:104E6000121B53EC112B00F06FFE00D8256294ED5D
:104E7000120B53EC1B2B51EC100B00F065FE11D202
:104E8000B0EE490AF0EE690A53EC102B94ED120BC8
:104E900051EC100B00F060FB41EC100B82A153ECC5
:104EA000102B04E094ED120B85A153EC102B13A8EA
:104EB000FBF76EFA94ED180B53EC1C2B51EC100B16
:104EC00000F0A2FC04D183A120A8FBF761FA13E053
:104ED00094ED180B53EC1B2B51EC100B00F0FAFC6B
:104EE00094ED180B53EC102B01D27EA101E0AFF230
:104EF000AC3120A8FBF74CFA01210846FEF758FD1B
:104F0000002118A8FEF7ECFC0B210120FEF750FD54
:104F100000212DA8FEF7E4FC01210220FEF748FD48
:104F2000002113A8FEF7DCFC01210320FEF740FD61
:104F3000002120A8FEF7D4FC01210420FEF738FD53
:104F40006068AFF2CC310090D4E9023205A8FBF7DB
:104F50001FFA002105A8FEF7C3FC0B210420FEF771
:104F600027FD1E485138406900F0DAFF41EC100B74
:104F700061A153EC102B05A8FBF70AFA002105A844
:104F8000FEF7AEFC00F0C6F8607001283FF434ACC8
:104F900064287FF431AC04206062FCF7A1FC0F4868
:104FA0003538816812914168289101681F91A7E006
:104FB00041542B4353510D0A000000002C040020E3
:104FC0002006002041542B434349440D0A000000B1
:104FD00041542B435245473F0D0A00005108002021
:104FE00041542B434D47533D222573220D0A0000A7
:104FF00050656E6767756E61616E2053656C657391
:105000006169210A57616B7475206D756C61692047
:1050100020203A2025643A25643A25642025642D11
:1050200025642D2564200A0057616B747520736513
:105030006C65736169203A2025643A25643A2564D9
:105040002025642D25642D2564200A00456E657297
:105050006779203A20252E334C666B572C205461FB
:10506000726966203A2052702E20252E324C660A34
:10507000000000002563000048000020534D53202D
:105080005465726B6972696D00000000563D252EF3
:105090003266560020493D252E3266410000000050
:1050A0009A9999999999B93F446179612870616B8E
:1050B0006169293D252E324C66206B5700000000A7
:1050C000446179612870616B6169293D252E324CFC
:1050D000662057005461726966203D2052702E2070
:1050E000302E30005461726966203D2052702E25AA
:1050F0002E344C660000000070663D252E3266009E
:1051000001691E9141690991806900F5FA60299051
:1051100049E6000010B5914C002280212046FCF7A2
:10512000FCFE012240212046FCF7F7FE012220214F
:105130002046FCF7F2FE012210212046FCF7EDFE8E
:1051400008212046FCF7E4FE20B908212046FCF7A0
:10515000DFFE28B104212046FCF7DAFE10B106E09C
:10516000312010BD04212046FCF7D2FE28B10221D7
:105170002046FCF7CDFE10B106E0322010BD022122
:105180002046FCF7C5FE28B101212046FCF7C0FEF1
:1051900010B106E0332010BD01212046FCF7B8FE17
:1051A000C8B1012280212046FCF7B7FE0022402131
:1051B0002046FCF7B2FE012220212046FCF7ADFE7E
:1051C000012210212046FCF7A8FE08212046FCF70A
:1051D0009FFE10B106E0612010BD08212046FCF7BB
:1051E00097FE28B104212046FCF792FE10B106E09C
:1051F000342010BD04212046FCF78AFE28B102218C
:105200002046FCF785FE10B106E0352010BD0221D6
:105210002046FCF77DFE28B101212046FCF778FEF0
:1052200010B106E0362010BD01212046FCF770FECB
:10523000C8B1012280212046FCF76FFE01224021E7
:105240002046FCF76AFE002220212046FCF765FE7E
:10525000012210212046FCF760FE08212046FCF7C1
:1052600057FE10B106E0622010BD08212046FCF771
:105270004FFE28B104212046FCF74AFE10B106E09B
:10528000372010BD04212046FCF742FE28B1022140
:105290002046FCF73DFE10B106E0382010BD02218B
:1052A0002046FCF735FE28B101212046FCF730FEF0
:1052B00010B106E0392010BD01212046FCF728FE80
:1052C000C8B1012280212046FCF727FE012240219F
:1052D0002046FCF722FE012220212046FCF71DFE7D
:1052E000002210212046FCF718FE08212046FCF77A
:1052F0000FFE10B106E0632010BD08212046FCF728
:1053000007FE28B104212046FCF702FE10B106E09A
:105310002A2010BD04212046FCF7FAFD28B1022105
:105320002046FCF7F5FD10B106E0302010BD02214B
:105330002046FCF7EDFD28B101212046FCF7E8FDF1
:1053400010B106E0232010BD01212046FCF7E0FD4E
:1053500008B1012010BD642010BD0000000C024007
:1053600010B500290AD00878002807D005487844ED
:10537000FBF7EAFD002801D0002010BD0248784468
:1053800010BD0000DA0D0000D20D000021F0004237
:10539000A2F16052B2F5801F01F0004328BFD2F1A4
:1053A0007F6C0BD95FEA001C43EAC20242EB5070EB
:1053B00018BF704728BF20F001007047B2F5801F6A
:1053C000BCBF184670474FEA410C1CF5001F02D2C3
:1053D000084600F01BBE70B500F062FB00000089BB
:1053E000FFF7F6BF4FF00040A0F5800070470000C7
:1053F00010B591EA030F48BF83F0004300F1AE847B
:10540000841A71EB030C05D2121943EB0C03001B39
:1054100061EB0C01DFF824E14FEA1154A4EB135CBB
:105420001EEA430F18BF9EEA445F73D023EA0E03BF
:10543000DCF1200E21EA045143F4801332D322FA26
:105440000CFE10EB0E0023FA0CFE41EB0E01CCF12A
:10545000200E03FA0EFE10EB0E0051F10001B1F523
:10546000801FCCF1200E32D201EB045112FA0EF261
:10547000BDE8104058BF7047401C38BF5FEA420289
:1054800018BF7047002814BF20F0010041F100014F
:105490004FEA410313F5001F38BF7047A1F1C04127
:1054A00000F04CBB012A43EB0302ACF1200CDCF111
:1054B0001F0E32BF4FF0000E23FA0CF310EB030067
:1054C00041EB0451B4EB115FD0D0A1EB045101F5D5
:1054D000801149085FEA300001EB04510ED350F10E
:1054E000000038BF12FA0EFE08D1BDE81040C9E72F
:1054F000401C38BF5FEA4202CAD1C3E7BDE8104092
:105500004FEA410313F5001F38BF7047A1F1C041B6
:1055100000F014BB9EEA445F08D011EA5E0FBDE8BC
:10552000104004BF01F0004100207047BDE810406A
:1055300070B500F0B5FA00BF64FBBE3E0000E0FFAE
:10554000491058BFC1F140415B1058BFC3F14043FF
:105550008B42EFF3008070472DE9C04130B4DFF893
:10556000A0C23CEA111418BF3CEA131400F0EC800E
:1055700081EA03051CEA111444EAD57418BF1CEA39
:10558000131500F0C780A4EB05044FF0004545EA71
:10559000C12145EAC32341EA505143EA525304F181
:1055A0007F74994204F500344FEAC0204FEAC222CA
:1055B00008BF904200F09C804FEA13650FF240163E
:1055C000765D4FEA134506FB05F7C7F1807706FBCA
:1055D00007F74FEAD737A7FB03687642C8F580384C
:1055E000A7FB06CE38BFA8F1010807FB08E64FF07D
:1055F000000EA6FB028CE6FB03CEDCF1000CCEF124
:10560000004E38BFAEF1010EA6FB0C584FF000075C
:105610004FF00005E6FB0E87A1FB08C6A0FB07CEF6
:1056200016EB0E0645F10005E1FB076515F1E04EAE
:105630007EBFA4F580345FEA46066D4116F180070F
:1056400045F100054FEA17274FEA066647EA056766
:10565000A6F1DE46B6F1805F4FEA15251FD9384620
:1056600024F0010C05EBC471BCF1FE6F01EB0C11D1
:1056700002D8F0BCBDE8008124425CBF01F5801E69
:105680009EEAC47F02D4F0BCBDE80081244238D435
:10569000F0BCA1F1C041BDE8004100F04FBA4FEAB3
:1056A000D22242EA43524FEAD323A7FB02864FEAB3
:1056B000D02040EA415007FB03661EEA0E0F4FEA76
:1056C000D12105FB026658BFA6EB0056B6EB00568B
:1056D0004FEA520E4EEAC37E18EB0E0E56EB530EF7
:1056E000BDD518EB02085E417F1C55F10005B6E7F9
:1056F0004FF480154FF000074FF000064FF0000800
:10570000ADE7F0BC4FF0000001F1C04101F00041F5
:10571000BDE8008111EA0C1F0CEA131500D00CE063
:1057200013EA0C1F00F025804FF00000F0BC81EA66
:10573000030101F00041BDE80081F0BCBDE800417B
:1057400081EA030100F0FAB9F0BCBDE8004170B590
:1057500000F0A6F9097EFC3E00F007B881EA0301DB
:105760004FF0000001F00041704781EA030100F0B2
:10577000E5B9F0BCBDE800414FF000002149704799
:10578000FFFDFBF9F7F5F4F2F0EEEDEBE9E8E6E406
:10579000E3E1E0DEDDDBDAD8D7D5D4D3D1D0CFCD8D
:1057A000CCCBCAC8C7C6C5C4C2C1C0BFBEBDBCBBC6
:1057B000BAB9B8B7B6B5B4B3B2B1B0AFAEADACABC1
:1057C000AAA9A8A8A7A6A5A4A3A3A2A1A09F9F9E9B
:1057D0009D9C9C9B9A99999897979695959493934D
:1057E000929191908F8F8E8E8D8C8C8B8B8A8989E4
:1057F0008888878786858584848383828281818067
:105800000000FF070000F87F51EA030C17D41CF5D5
:10581000801F58BFBCF5801F00F10680994218BF59
:10582000704708BF9042704707D711F5801F58BFD7
:1058300013F5801F19D499427047894270471CF5AF
:10584000801F08D5BCF5801FF7D58B4218BF704765
:1058500008BF824270474FF4001C1CEB410F38BF59
:105860001CEB430F01D28B42704770B500F018F962
:10587000922449004FF000514FF08053FFF760BE73
:1058800010F0004248BF4042B0FA80F310FA03F132
:105890000AD0C3F11D0303F580634FEA415002EBC8
:1058A000035202EBD12170474FF000007047B0FA6D
:1058B00080F310FA03F10AD0C3F11D0303F58063EE
:1058C0004FEA41504FEA035202EBD12170474FF0AB
:1058D0000000704751EA030C17D41CF5801F58BF15
:1058E000BCF5801F00F10680994218BF704708BFC1
:1058F0009042704707D711F5801F58BF13F5801FDE
:1059000019D499427047894270471CF5801F08D509
:10591000BCF5801FF7D58B4218BF704708BF824285
:1059200070474FF4001C1CEB410F38BF1CEB430FBA
:1059300001D28B42704770B500F0B2F89224490052
:105940004FF000514FF08053FFF7FABDDFF848C128
:1059500070B51CEA111E1EBF1CEA13159EEA0C0F3F
:1059600095EA0C0F00F06F8081EA030423EA4C13E0
:105970004EEAD47E21EA4C1141F4801143F48013A5
:10598000AE44A1FB024CA0FB0365AEF17F7E36194D
:1059900055EB0C05A1FB034C4CF10003A0FB021CD2
:1059A00016EB0C06654153F10003094218BF46F09F
:1059B000010613F4007F0BD14FEA03314FEA0530A3
:1059C000340341EA155140EA16506FF003020AE031
:1059D0004FEAC3214FEAC520F40241EA555140EA9B
:1059E00056506FF0020202EB2E4201EB025585EA9F
:1059F000CE710AD05FEA440C18BF24F0004450F185
:105A0000000041F1000120EAD47040F2FE7C6245C2
:105A100000D270BDA84214BF4FF080444FF0404404
:105A2000002E08BF0024BEF1806FA8BFA1F1C041C5
:105A3000BDE8704080F282804FF0000001F1C0416B
:105A400001F0004170479EEA0C0F0CEA131518BFD5
:105A500095EA0C0F06D04FF0000081EA030E0EF01D
:105A6000004170BD00F01CF88900013E00F007B84D
:105A700000F009B84FEA430C5FEA5C5C08D081EAA9
:105A8000030100F05BB84FEA410C5FEA5C5CF6D1C1
:105A90004FF00000014970470000FF070000F87F49
:105AA0000EF1020E2EF0030E5EF8046B364205D4A2
:105AB000012A43EB030515F5001F12D8012841EB1D
:105AC000010C1CF5001F0CD80ED14FEAD17C15F546
:105AD000001F0CEB4C0C0CF1020C08BF4CEBD37C00
